{
  "_format": "hh-sol-artifact-1",
  "contractName": "ThreadsOfTruth",
  "sourceName": "contracts/TruthsOfThread.sol",
  "abi": [
    {
      "inputs": [
        {
          "internalType": "address",
          "name": "router",
          "type": "address"
        },
        {
          "internalType": "bytes32",
          "name": "_donId",
          "type": "bytes32"
        }
      ],
      "stateMutability": "nonpayable",
      "type": "constructor"
    },
    {
      "anonymous": false,
      "inputs": [
        {
          "indexed": true,
          "internalType": "address",
          "name": "from",
          "type": "address"
        },
        {
          "indexed": true,
          "internalType": "address",
          "name": "to",
          "type": "address"
        }
      ],
      "name": "OwnershipTransferRequested",
      "type": "event"
    },
    {
      "anonymous": false,
      "inputs": [
        {
          "indexed": true,
          "internalType": "address",
          "name": "from",
          "type": "address"
        },
        {
          "indexed": true,
          "internalType": "address",
          "name": "to",
          "type": "address"
        }
      ],
      "name": "OwnershipTransferred",
      "type": "event"
    },
    {
      "anonymous": false,
      "inputs": [
        {
          "indexed": true,
          "internalType": "address",
          "name": "user",
          "type": "address"
        },
        {
          "indexed": false,
          "internalType": "string",
          "name": "productId",
          "type": "string"
        },
        {
          "indexed": false,
          "internalType": "enum ThreadsOfTruth.Status",
          "name": "status",
          "type": "uint8"
        }
      ],
      "name": "VerificationCompleted",
      "type": "event"
    },
    {
      "anonymous": false,
      "inputs": [
        {
          "indexed": true,
          "internalType": "address",
          "name": "user",
          "type": "address"
        },
        {
          "indexed": false,
          "internalType": "string",
          "name": "productId",
          "type": "string"
        }
      ],
      "name": "VerificationRequested",
      "type": "event"
    },
    {
      "inputs": [],
      "name": "acceptOwnership",
      "outputs": [],
      "stateMutability": "nonpayable",
      "type": "function"
    },
    {
      "inputs": [
        {
          "internalType": "address",
          "name": "user",
          "type": "address"
        }
      ],
      "name": "getRoleString",
      "outputs": [
        {
          "internalType": "string",
          "name": "",
          "type": "string"
        }
      ],
      "stateMutability": "view",
      "type": "function"
    },
    {
      "inputs": [
        {
          "internalType": "address",
          "name": "user",
          "type": "address"
        }
      ],
      "name": "getVerificationStatus",
      "outputs": [
        {
          "internalType": "string",
          "name": "",
          "type": "string"
        }
      ],
      "stateMutability": "view",
      "type": "function"
    },
    {
      "inputs": [],
      "name": "i_donId",
      "outputs": [
        {
          "internalType": "bytes32",
          "name": "",
          "type": "bytes32"
        }
      ],
      "stateMutability": "view",
      "type": "function"
    },
    {
      "inputs": [],
      "name": "i_router",
      "outputs": [
        {
          "internalType": "address",
          "name": "",
          "type": "address"
        }
      ],
      "stateMutability": "view",
      "type": "function"
    },
    {
      "inputs": [],
      "name": "owner",
      "outputs": [
        {
          "internalType": "address",
          "name": "",
          "type": "address"
        }
      ],
      "stateMutability": "view",
      "type": "function"
    },
    {
      "inputs": [
        {
          "internalType": "string",
          "name": "source",
          "type": "string"
        },
        {
          "internalType": "bytes",
          "name": "secrets",
          "type": "bytes"
        },
        {
          "internalType": "bytes[]",
          "name": "args",
          "type": "bytes[]"
        },
        {
          "internalType": "uint64",
          "name": "subscriptionId",
          "type": "uint64"
        },
        {
          "internalType": "uint32",
          "name": "gasLimit",
          "type": "uint32"
        }
      ],
      "name": "sendRequest",
      "outputs": [
        {
          "internalType": "bytes32",
          "name": "requestId",
          "type": "bytes32"
        }
      ],
      "stateMutability": "nonpayable",
      "type": "function"
    },
    {
      "inputs": [
        {
          "internalType": "address",
          "name": "",
          "type": "address"
        }
      ],
      "name": "submissions",
      "outputs": [
        {
          "internalType": "string",
          "name": "productName",
          "type": "string"
        },
        {
          "internalType": "string",
          "name": "productId",
          "type": "string"
        },
        {
          "internalType": "string",
          "name": "location",
          "type": "string"
        },
        {
          "internalType": "string",
          "name": "imageHash",
          "type": "string"
        },
        {
          "internalType": "uint256",
          "name": "timestamp",
          "type": "uint256"
        },
        {
          "internalType": "enum ThreadsOfTruth.Role",
          "name": "role",
          "type": "uint8"
        },
        {
          "internalType": "enum ThreadsOfTruth.Status",
          "name": "status",
          "type": "uint8"
        }
      ],
      "stateMutability": "view",
      "type": "function"
    },
    {
      "inputs": [
        {
          "internalType": "string",
          "name": "productName",
          "type": "string"
        },
        {
          "internalType": "string",
          "name": "productId",
          "type": "string"
        },
        {
          "internalType": "string",
          "name": "location",
          "type": "string"
        },
        {
          "internalType": "string",
          "name": "imageHash",
          "type": "string"
        },
        {
          "internalType": "uint256",
          "name": "timestamp",
          "type": "uint256"
        },
        {
          "internalType": "enum ThreadsOfTruth.Role",
          "name": "role",
          "type": "uint8"
        }
      ],
      "name": "submitMetadata",
      "outputs": [],
      "stateMutability": "nonpayable",
      "type": "function"
    },
    {
      "inputs": [
        {
          "internalType": "address",
          "name": "to",
          "type": "address"
        }
      ],
      "name": "transferOwnership",
      "outputs": [],
      "stateMutability": "nonpayable",
      "type": "function"
    }
  ],
  "bytecode": "0x60806040523480156200001157600080fd5b506040516200284038038062002840833981810160405281019062000037919062000365565b8181338060008484816000806101000a81548173ffffffffffffffffffffffffffffffffffffffff021916908373ffffffffffffffffffffffffffffffffffffffff160217905550806001819055505050600073ffffffffffffffffffffffffffffffffffffffff168273ffffffffffffffffffffffffffffffffffffffff1603620000fa576040517f08c379a0000000000000000000000000000000000000000000000000000000008152600401620000f1906200040d565b60405180910390fd5b81600260006101000a81548173ffffffffffffffffffffffffffffffffffffffff021916908373ffffffffffffffffffffffffffffffffffffffff160217905550600073ffffffffffffffffffffffffffffffffffffffff168173ffffffffffffffffffffffffffffffffffffffff1614620001825762000181816200018f60201b60201c565b5b50505050505050620004a1565b3373ffffffffffffffffffffffffffffffffffffffff168173ffffffffffffffffffffffffffffffffffffffff160362000200576040517f08c379a0000000000000000000000000000000000000000000000000000000008152600401620001f7906200047f565b60405180910390fd5b80600360006101000a81548173ffffffffffffffffffffffffffffffffffffffff021916908373ffffffffffffffffffffffffffffffffffffffff1602179055508073ffffffffffffffffffffffffffffffffffffffff16600260009054906101000a900473ffffffffffffffffffffffffffffffffffffffff1673ffffffffffffffffffffffffffffffffffffffff167fed8889f560326eb138920d842192f0eb3dd22b4f139c87a2c57538e05bae127860405160405180910390a350565b600080fd5b600073ffffffffffffffffffffffffffffffffffffffff82169050919050565b6000620002f282620002c5565b9050919050565b6200030481620002e5565b81146200031057600080fd5b50565b6000815190506200032481620002f9565b92915050565b6000819050919050565b6200033f816200032a565b81146200034b57600080fd5b50565b6000815190506200035f8162000334565b92915050565b600080604083850312156200037f576200037e620002c0565b5b60006200038f8582860162000313565b9250506020620003a2858286016200034e565b9150509250929050565b600082825260208201905092915050565b7f43616e6e6f7420736574206f776e657220746f207a65726f0000000000000000600082015250565b6000620003f5601883620003ac565b91506200040282620003bd565b602082019050919050565b600060208201905081810360008301526200042881620003e6565b9050919050565b7f43616e6e6f74207472616e7366657220746f2073656c66000000000000000000600082015250565b600062000467601783620003ac565b915062000474826200042f565b602082019050919050565b600060208201905081810360008301526200049a8162000458565b9050919050565b61238f80620004b16000396000f3fe608060405234801561001057600080fd5b506004361061009d5760003560e01c806379ba50971161006657806379ba50971461015a57806389e14e16146101645780638da5cb5b1461019a578063d91a2a42146101b8578063f2fde38b146101e85761009d565b80629efe16146100a25780630b3f3ee2146100be5780634017d0d0146100ee578063581bdd161461010c5780636103681a1461012a575b600080fd5b6100bc60048036038101906100b791906112ea565b610204565b005b6100d860048036038101906100d3919061156f565b6104dd565b6040516100e59190611664565b60405180910390f35b6100f66105f5565b6040516101039190611664565b60405180910390f35b6101146105fb565b60405161012191906116c0565b60405180910390f35b610144600480360381019061013f9190611707565b61061f565b60405161015191906117b3565b60405180910390f35b6101626107f1565b005b61017e60048036038101906101799190611707565b610988565b60405161019197969594939291906118a3565b60405180910390f35b6101a2610c04565b6040516101af91906116c0565b60405180910390f35b6101d260048036038101906101cd9190611707565b610c2e565b6040516101df91906117b3565b60405180910390f35b61020260048036038101906101fd9190611707565b610e00565b005b6000855111610248576040517f08c379a000000000000000000000000000000000000000000000000000000000815260040161023f9061197a565b60405180910390fd5b600084511161028c576040517f08c379a0000000000000000000000000000000000000000000000000000000008152600401610283906119e6565b60405180910390fd5b603c426102999190611a35565b8211156102db576040517f08c379a00000000000000000000000000000000000000000000000000000000081526004016102d290611ab5565b60405180910390fd5b61012c426102e99190611ad5565b82101561032b576040517f08c379a000000000000000000000000000000000000000000000000000000000815260040161032290611b55565b60405180910390fd5b6040518060e00160405280878152602001868152602001858152602001848152602001838152602001826002811115610367576103666117e4565b5b8152602001600060028111156103805761037f6117e4565b5b815250600460003373ffffffffffffffffffffffffffffffffffffffff1673ffffffffffffffffffffffffffffffffffffffff16815260200190815260200160002060008201518160000190816103d79190611d81565b5060208201518160010190816103ed9190611d81565b5060408201518160020190816104039190611d81565b5060608201518160030190816104199190611d81565b506080820151816004015560a08201518160050160006101000a81548160ff0219169083600281111561044f5761044e6117e4565b5b021790555060c08201518160050160016101000a81548160ff0219169083600281111561047f5761047e6117e4565b5b02179055509050503373ffffffffffffffffffffffffffffffffffffffff167f3e88386275b9210d2542c58c3bb829eaff9aa4e1319632dc33df14060f294cac866040516104cd91906117b3565b60405180910390a2505050505050565b60006104e76110e4565b6105436000808c8c8080601f016020809104026020016040519081016040528093929190818152602001838380828437600081840152601f19601f8201169050808301925050505050505084610e14909392919063ffffffff16565b60008888905011156105a7576105a688888080601f016020809104026020016040519081016040528093929190818152602001838380828437600081840152601f19601f8201169050808301925050505050505082610e8390919063ffffffff16565b5b60008686905011156105d3576105d28686906105c39190611fa7565b82610e9090919063ffffffff16565b5b6105e66105df82610e9d565b8585610ee2565b91505098975050505050505050565b60015481565b60008054906101000a900473ffffffffffffffffffffffffffffffffffffffff1681565b60606000600460008473ffffffffffffffffffffffffffffffffffffffff1673ffffffffffffffffffffffffffffffffffffffff16815260200190815260200160002060050160019054906101000a900460ff16905060006002811115610689576106886117e4565b5b81600281111561069c5761069b6117e4565b5b036106df576040518060400160405280600781526020017f50454e44494e47000000000000000000000000000000000000000000000000008152509150506107ec565b600160028111156106f3576106f26117e4565b5b816002811115610706576107056117e4565b5b03610749576040518060400160405280600581526020017f56414c49440000000000000000000000000000000000000000000000000000008152509150506107ec565b60028081111561075c5761075b6117e4565b5b81600281111561076f5761076e6117e4565b5b036107b2576040518060400160405280600781526020017f494e56414c4944000000000000000000000000000000000000000000000000008152509150506107ec565b6040518060400160405280600781526020017f554e4b4e4f574e000000000000000000000000000000000000000000000000008152509150505b919050565b600360009054906101000a900473ffffffffffffffffffffffffffffffffffffffff1673ffffffffffffffffffffffffffffffffffffffff163373ffffffffffffffffffffffffffffffffffffffff1614610881576040517f08c379a000000000000000000000000000000000000000000000000000000000815260040161087890612008565b60405180910390fd5b6000600260009054906101000a900473ffffffffffffffffffffffffffffffffffffffff16905033600260006101000a81548173ffffffffffffffffffffffffffffffffffffffff021916908373ffffffffffffffffffffffffffffffffffffffff1602179055506000600360006101000a81548173ffffffffffffffffffffffffffffffffffffffff021916908373ffffffffffffffffffffffffffffffffffffffff1602179055503373ffffffffffffffffffffffffffffffffffffffff168173ffffffffffffffffffffffffffffffffffffffff167f8be0079c531659141344cd1fd0a4f28419497f9722a3daafe3b4186f6b6457e060405160405180910390a350565b60046020528060005260406000206000915090508060000180546109ab90611ba4565b80601f01602080910402602001604051908101604052809291908181526020018280546109d790611ba4565b8015610a245780601f106109f957610100808354040283529160200191610a24565b820191906000526020600020905b815481529060010190602001808311610a0757829003601f168201915b505050505090806001018054610a3990611ba4565b80601f0160208091040260200160405190810160405280929190818152602001828054610a6590611ba4565b8015610ab25780601f10610a8757610100808354040283529160200191610ab2565b820191906000526020600020905b815481529060010190602001808311610a9557829003601f168201915b505050505090806002018054610ac790611ba4565b80601f0160208091040260200160405190810160405280929190818152602001828054610af390611ba4565b8015610b405780601f10610b1557610100808354040283529160200191610b40565b820191906000526020600020905b815481529060010190602001808311610b2357829003601f168201915b505050505090806003018054610b5590611ba4565b80601f0160208091040260200160405190810160405280929190818152602001828054610b8190611ba4565b8015610bce5780601f10610ba357610100808354040283529160200191610bce565b820191906000526020600020905b815481529060010190602001808311610bb157829003601f168201915b5050505050908060040154908060050160009054906101000a900460ff16908060050160019054906101000a900460ff16905087565b6000600260009054906101000a900473ffffffffffffffffffffffffffffffffffffffff16905090565b60606000600460008473ffffffffffffffffffffffffffffffffffffffff1673ffffffffffffffffffffffffffffffffffffffff16815260200190815260200160002060050160009054906101000a900460ff16905060006002811115610c9857610c976117e4565b5b816002811115610cab57610caa6117e4565b5b03610cee576040518060400160405280600781526020017f4172746973616e00000000000000000000000000000000000000000000000000815250915050610dfb565b60016002811115610d0257610d016117e4565b5b816002811115610d1557610d146117e4565b5b03610d58576040518060400160405280600881526020017f5665726966696572000000000000000000000000000000000000000000000000815250915050610dfb565b600280811115610d6b57610d6a6117e4565b5b816002811115610d7e57610d7d6117e4565b5b03610dc1576040518060400160405280600581526020017f41646d696e000000000000000000000000000000000000000000000000000000815250915050610dfb565b6040518060400160405280600781526020017f556e6b6e6f776e000000000000000000000000000000000000000000000000008152509150505b919050565b610e08610ef8565b610e1181610f8a565b50565b8284600001906000811115610e2c57610e2b6117e4565b5b90816000811115610e4057610e3f6117e4565b5b815250508184602001906000811115610e5c57610e5b6117e4565b5b90816000811115610e7057610e6f6117e4565b5b8152505080846040018190525050505050565b8082606001819052505050565b8082608001819052505050565b606081600001518260200151836040015184606001518560800151604051602001610ecc959493929190612219565b6040516020818303038152906040529050919050565b6000610eef8484846110b8565b90509392505050565b600260009054906101000a900473ffffffffffffffffffffffffffffffffffffffff1673ffffffffffffffffffffffffffffffffffffffff163373ffffffffffffffffffffffffffffffffffffffff1614610f88576040517f08c379a0000000000000000000000000000000000000000000000000000000008152600401610f7f906122cd565b60405180910390fd5b565b3373ffffffffffffffffffffffffffffffffffffffff168173ffffffffffffffffffffffffffffffffffffffff1603610ff8576040517f08c379a0000000000000000000000000000000000000000000000000000000008152600401610fef90612339565b60405180910390fd5b80600360006101000a81548173ffffffffffffffffffffffffffffffffffffffff021916908373ffffffffffffffffffffffffffffffffffffffff1602179055508073ffffffffffffffffffffffffffffffffffffffff16600260009054906101000a900473ffffffffffffffffffffffffffffffffffffffff1673ffffffffffffffffffffffffffffffffffffffff167fed8889f560326eb138920d842192f0eb3dd22b4f139c87a2c57538e05bae127860405160405180910390a350565b60007f31e220ba9f554030a90afb983bc7f119835529250c3d9afdc74e44d1033f005190509392505050565b6040518060a00160405280600080811115611102576111016117e4565b5b815260200160008081111561111a576111196117e4565b5b81526020016060815260200160608152602001606081525090565b6000604051905090565b600080fd5b600080fd5b600080fd5b600080fd5b6000601f19601f8301169050919050565b7f4e487b7100000000000000000000000000000000000000000000000000000000600052604160045260246000fd5b61119c82611153565b810181811067ffffffffffffffff821117156111bb576111ba611164565b5b80604052505050565b60006111ce611135565b90506111da8282611193565b919050565b600067ffffffffffffffff8211156111fa576111f9611164565b5b61120382611153565b9050602081019050919050565b82818337600083830152505050565b600061123261122d846111df565b6111c4565b90508281526020810184848401111561124e5761124d61114e565b5b611259848285611210565b509392505050565b600082601f83011261127657611275611149565b5b813561128684826020860161121f565b91505092915050565b6000819050919050565b6112a28161128f565b81146112ad57600080fd5b50565b6000813590506112bf81611299565b92915050565b600381106112d257600080fd5b50565b6000813590506112e4816112c5565b92915050565b60008060008060008060c087890312156113075761130661113f565b5b600087013567ffffffffffffffff81111561132557611324611144565b5b61133189828a01611261565b965050602087013567ffffffffffffffff81111561135257611351611144565b5b61135e89828a01611261565b955050604087013567ffffffffffffffff81111561137f5761137e611144565b5b61138b89828a01611261565b945050606087013567ffffffffffffffff8111156113ac576113ab611144565b5b6113b889828a01611261565b93505060806113c989828a016112b0565b92505060a06113da89828a016112d5565b9150509295509295509295565b600080fd5b600080fd5b60008083601f84011261140757611406611149565b5b8235905067ffffffffffffffff811115611424576114236113e7565b5b6020830191508360018202830111156114405761143f6113ec565b5b9250929050565b60008083601f84011261145d5761145c611149565b5b8235905067ffffffffffffffff81111561147a576114796113e7565b5b602083019150836001820283011115611496576114956113ec565b5b9250929050565b60008083601f8401126114b3576114b2611149565b5b8235905067ffffffffffffffff8111156114d0576114cf6113e7565b5b6020830191508360208202830111156114ec576114eb6113ec565b5b9250929050565b600067ffffffffffffffff82169050919050565b611510816114f3565b811461151b57600080fd5b50565b60008135905061152d81611507565b92915050565b600063ffffffff82169050919050565b61154c81611533565b811461155757600080fd5b50565b60008135905061156981611543565b92915050565b60008060008060008060008060a0898b03121561158f5761158e61113f565b5b600089013567ffffffffffffffff8111156115ad576115ac611144565b5b6115b98b828c016113f1565b9850985050602089013567ffffffffffffffff8111156115dc576115db611144565b5b6115e88b828c01611447565b9650965050604089013567ffffffffffffffff81111561160b5761160a611144565b5b6116178b828c0161149d565b9450945050606061162a8b828c0161151e565b925050608061163b8b828c0161155a565b9150509295985092959890939650565b6000819050919050565b61165e8161164b565b82525050565b60006020820190506116796000830184611655565b92915050565b600073ffffffffffffffffffffffffffffffffffffffff82169050919050565b60006116aa8261167f565b9050919050565b6116ba8161169f565b82525050565b60006020820190506116d560008301846116b1565b92915050565b6116e48161169f565b81146116ef57600080fd5b50565b600081359050611701816116db565b92915050565b60006020828403121561171d5761171c61113f565b5b600061172b848285016116f2565b91505092915050565b600081519050919050565b600082825260208201905092915050565b60005b8381101561176e578082015181840152602081019050611753565b60008484015250505050565b600061178582611734565b61178f818561173f565b935061179f818560208601611750565b6117a881611153565b840191505092915050565b600060208201905081810360008301526117cd818461177a565b905092915050565b6117de8161128f565b82525050565b7f4e487b7100000000000000000000000000000000000000000000000000000000600052602160045260246000fd5b60038110611824576118236117e4565b5b50565b600081905061183582611813565b919050565b600061184582611827565b9050919050565b6118558161183a565b82525050565b6003811061186c5761186b6117e4565b5b50565b600081905061187d8261185b565b919050565b600061188d8261186f565b9050919050565b61189d81611882565b82525050565b600060e08201905081810360008301526118bd818a61177a565b905081810360208301526118d1818961177a565b905081810360408301526118e5818861177a565b905081810360608301526118f9818761177a565b905061190860808301866117d5565b61191560a083018561184c565b61192260c0830184611894565b98975050505050505050565b7f50726f6475637420494420726571756972656400000000000000000000000000600082015250565b600061196460138361173f565b915061196f8261192e565b602082019050919050565b6000602082019050818103600083015261199381611957565b9050919050565b7f4c6f636174696f6e207265717569726564000000000000000000000000000000600082015250565b60006119d060118361173f565b91506119db8261199a565b602082019050919050565b600060208201905081810360008301526119ff816119c3565b9050919050565b7f4e487b7100000000000000000000000000000000000000000000000000000000600052601160045260246000fd5b6000611a408261128f565b9150611a4b8361128f565b9250828201905080821115611a6357611a62611a06565b5b92915050565b7f54696d657374616d7020746f6f2066617220696e206675747572650000000000600082015250565b6000611a9f601b8361173f565b9150611aaa82611a69565b602082019050919050565b60006020820190508181036000830152611ace81611a92565b9050919050565b6000611ae08261128f565b9150611aeb8361128f565b9250828203905081811115611b0357611b02611a06565b5b92915050565b7f54696d657374616d7020746f6f206f6c64000000000000000000000000000000600082015250565b6000611b3f60118361173f565b9150611b4a82611b09565b602082019050919050565b60006020820190508181036000830152611b6e81611b32565b9050919050565b7f4e487b7100000000000000000000000000000000000000000000000000000000600052602260045260246000fd5b60006002820490506001821680611bbc57607f821691505b602082108103611bcf57611bce611b75565b5b50919050565b60008190508160005260206000209050919050565b60006020601f8301049050919050565b600082821b905092915050565b600060088302611c377fffffffffffffffffffffffffffffffffffffffffffffffffffffffffffffffff82611bfa565b611c418683611bfa565b95508019841693508086168417925050509392505050565b6000819050919050565b6000611c7e611c79611c748461128f565b611c59565b61128f565b9050919050565b6000819050919050565b611c9883611c63565b611cac611ca482611c85565b848454611c07565b825550505050565b600090565b611cc1611cb4565b611ccc818484611c8f565b505050565b5b81811015611cf057611ce5600082611cb9565b600181019050611cd2565b5050565b601f821115611d3557611d0681611bd5565b611d0f84611bea565b81016020851015611d1e578190505b611d32611d2a85611bea565b830182611cd1565b50505b505050565b600082821c905092915050565b6000611d5860001984600802611d3a565b1980831691505092915050565b6000611d718383611d47565b9150826002028217905092915050565b611d8a82611734565b67ffffffffffffffff811115611da357611da2611164565b5b611dad8254611ba4565b611db8828285611cf4565b600060209050601f831160018114611deb5760008415611dd9578287015190505b611de38582611d65565b865550611e4b565b601f198416611df986611bd5565b60005b82811015611e2157848901518255600182019150602085019450602081019050611dfc565b86831015611e3e5784890151611e3a601f891682611d47565b8355505b6001600288020188555050505b505050505050565b600067ffffffffffffffff821115611e6e57611e6d611164565b5b602082029050602081019050919050565b600067ffffffffffffffff821115611e9a57611e99611164565b5b611ea382611153565b9050602081019050919050565b6000611ec3611ebe84611e7f565b6111c4565b905082815260208101848484011115611edf57611ede61114e565b5b611eea848285611210565b509392505050565b600082601f830112611f0757611f06611149565b5b8135611f17848260208601611eb0565b91505092915050565b6000611f33611f2e84611e53565b6111c4565b90508083825260208201905060208402830185811115611f5657611f556113ec565b5b835b81811015611f9d57803567ffffffffffffffff811115611f7b57611f7a611149565b5b808601611f888982611ef2565b85526020850194505050602081019050611f58565b5050509392505050565b6000611fb4368484611f20565b905092915050565b7f4d7573742062652070726f706f736564206f776e657200000000000000000000600082015250565b6000611ff260168361173f565b9150611ffd82611fbc565b602082019050919050565b6000602082019050818103600083015261202181611fe5565b9050919050565b60018110612039576120386117e4565b5b50565b600081905061204a82612028565b919050565b600061205a8261203c565b9050919050565b61206a8161204f565b82525050565b60018110612081576120806117e4565b5b50565b600081905061209282612070565b919050565b60006120a282612084565b9050919050565b6120b281612097565b82525050565b600081519050919050565b600082825260208201905092915050565b60006120df826120b8565b6120e981856120c3565b93506120f9818560208601611750565b61210281611153565b840191505092915050565b600081519050919050565b600082825260208201905092915050565b6000819050602082019050919050565b600082825260208201905092915050565b6000612155826120b8565b61215f8185612139565b935061216f818560208601611750565b61217881611153565b840191505092915050565b600061218f838361214a565b905092915050565b6000602082019050919050565b60006121af8261210d565b6121b98185612118565b9350836020820285016121cb85612129565b8060005b8581101561220757848403895281516121e88582612183565b94506121f383612197565b925060208a019950506001810190506121cf565b50829750879550505050505092915050565b600060a08201905061222e6000830188612061565b61223b60208301876120a9565b818103604083015261224d818661177a565b9050818103606083015261226181856120d4565b9050818103608083015261227581846121a4565b90509695505050505050565b7f4f6e6c792063616c6c61626c65206279206f776e657200000000000000000000600082015250565b60006122b760168361173f565b91506122c282612281565b602082019050919050565b600060208201905081810360008301526122e6816122aa565b9050919050565b7f43616e6e6f74207472616e7366657220746f2073656c66000000000000000000600082015250565b600061232360178361173f565b915061232e826122ed565b602082019050919050565b6000602082019050818103600083015261235281612316565b905091905056fea26469706673582212206a572f92b6f252097b5be1870c9d38e2aa1bb584793c78f820ab2e713137fcf564736f6c63430008130033",
  "linkReferences": {},
  "deployedLinkReferences": {}
}